:020000040800F2
:100000000038012059020008614D000855450008DC
:100010005D4D000845340008FF6D00080000000039
:10002000000000000000000000000000A101000826
:100030001D3C000800000000F5010008A95D000853
:1000400073020008730200087302000873020008BC
:1000500073020008730200087302000873020008AC
:10006000730200087302000873020008730200089C
:10007000730200087302000873020008730200088C
:10008000730200087302000873020008730200087C
:10009000730200087302000873020008B13F0008F1
:1000A000730200087302000873020008730200085C
:1000B000730200087302000873020008730200084C
:1000C000730200087302000873020008730200083C
:1000D0007302000809690008C5690008E969000899
:1000E000730200087302000873020008730200081C
:1000F000730200087302000873020008730200080C
:1001000073020008730200087302000873020008FB
:1001100021680008730200087302000873020008D7
:1001200073020008730200087302000873020008DB
:1001300073020008730200087302000873020008CB
:1001400073020008730200087302000873020008BB
:10015000730200087302000873020008D96A0008DD
:10016000730200087302000873020008730200089B
:10017000730200087302000873020008730200088B
:100180007302000873020008DFF810D000F03EFB95
:100190000048004729790008AFF3008000380120AB
:1001A0002A4B19680868B0E8F04F80F30988BFF35C
:1001B0006F8F4FF0000080F311887047000000003F
:1001C00006480068006880F3088862B661B6BFF32D
:1001D0004F8FBFF36F8F00DF00BF00BF08ED00E05F
:1001E000DFF80C00016841F470010160704700BF46
:1001F00088ED00E0EFF30980BFF36F8F134B1A68AF
:100200001EF0100F08BF20ED108A20E9F04F10609B
:1002100008B44FF0500080F31188BFF34F8FBFF345
:100220006F8F08F00DFF4FF0000080F3118808BCBD
:1002300019680868B0E8F04F1EF0100F08BFB0EC66
:10024000108A80F30988BFF36F8F70474800002041
:10025000EFF30580704700000648804706480047D6
:10026000FEE7FEE7FEE7FEE7FEE7FEE7FEE7FEE766
:10027000FEE7FEE7B95D00088901000840EA0103D6
:100280009B0703D009E008C9121F08C0042AFAD24C
:1002900003E011F8013B00F8013B521EF9D2704710
:1002A000D2B201E000F8012B491EFBD270470022B8
:1002B000F6E710B513460A4604461946FFF7F0FF65
:1002C000204610BD20F00040C20DC0F3160040F4DF
:1002D00000007F2A02DA0020014670470021962A9A
:1002E00003DCC2F19602D0407047963A00F08FB816
:1002F00000F0004230F000400AD0C10D01F56071FD
:10030000C0F3160042EA0151C2084007114370478A
:10031000002001467047000030B5041E71F1000452
:1003200004DB4FF00044404264EB0101141E73F102
:10033000000405DB1C464FF00043524263EB04030C
:100340008B4208BF824230BD01F0004330B421F03F
:10035000004150EA010206D00A0DA2F56072C1F315
:100360001301002A02DC30BC00207047440F44EA2D
:10037000C104C100E01830BC00EBC25000F056B818
:1003800030B50B46014600202022012409E021FA65
:1003900002F59D4205D303FA02F5491B04FA02F562
:1003A0002844151EA2F10102F1DC30BD2DE9F05FF9
:1003B0000546002092469B468846064681464024D4
:1003C0001BE0284641464746224600F031FA534694
:1003D0005A46C01A914110D311461846224600F0E1
:1003E00016F82D1A67EB01084F462246012000211E
:1003F00000F00DF817EB00094E41201EA4F1010496
:10040000DFDC484631462A464346BDE8F09F202AB5
:1004100004DB203A00FA02F1002070479140C2F15B
:10042000200320FA03F31943904070470029A8BF26
:100430007047401C490008BF20F00100704710B40D
:10044000B0FA80FC00FA0CF050EA010404BF10BCC2
:10045000704749B1CCF1200421FA04F411FA0CF1EF
:1004600018BF012121430843A3EB0C01CB1D4FEA28
:1004700000614FEA102042BF002010BC704700EB23
:10048000C35010440029A4BF10BC7047401C490051
:1004900008BF20F0010010BC70472DE9FE4F8046D8
:1004A00081EA0300C00F0C46009021F0004123F0C8
:1004B0000045B8EB0200A94105D2404621469046CE
:1004C0001C460B46024623F00040104347D0270D40
:1004D000C7F30A00C3F30A510290401A0190402862
:1004E0006BDAC3F3130040F4801B0098924620B1EE
:1004F0000023D2EB030A63EB0B0B01985946C0F1C2
:1005000040025046FFF783FF06460D4650465946C7
:10051000019A00F09DF910EB08006141002487EA80
:10052000115284EAE7731A4340D0009A62B3019AE9
:10053000012A4FEA075215DC001B61EB02014FF064
:10054000004202EA0752CDE90042001C41F5801149
:1005500032462B4600F09DF903B0BDE8F08F4046CF
:100560002146F9E7001B61EB0201001C41F58013F5
:1005700000185B412018A2F5001747EB030140EA81
:10058000D570B6196D4111E06D084FEA360645EA9F
:10059000C0754FEA0752001B61EB0201001C41F5D8
:1005A000801149084FEA30000019514132462B466C
:1005B00003B0BDE8F04F00F05DB9009801224000A3
:1005C0000023D0EB020263EBE073009821464FEA70
:1005D000E074B8EB000061EB0401E9E783F000434D
:1005E0005BE781F0004158E72DE9FE4F81EA030403
:1005F00004F0004421F0004100944FF0000B23F080
:10060000004350EA01045ED052EA03045BD0C3F316
:100610000A54C1F30A552C44A4F2F3340194A0FB0C
:100620000254C1F3130141F48011C3F3130343F4E3
:10063000801301FB024400FB034E840A970A44EA3C
:10064000815447EA8357A4FB076802958D0A05FB8E
:1006500007854FEA932C04FB0C542705029D4FEAB3
:10066000065847EA1637B5EB08056EEB070C870E00
:10067000920E47EA811742EA8312A7FB0201B6EB0A
:100680000B0164EB00042B0D43EA0C335E1844EBC2
:100690001C50DA465146E7FB0201C5F313044FEA4A
:1006A0000B3343EA14534FEA0432019C43EA060336
:1006B000A4F10C040294009CCDE900B400F0E9F828
:1006C00003B0BDE8F08F00200146F9E72DE9F04DB9
:1006D00081EA030404F0004B21F0004514464FF07A
:1006E000000A23F0004150EA050220D054EA01023A
:1006F0001DD0C5F30A570246C5F31303C1F3130017
:10070000C1F30A5640F4801543F48013A7EB0608A2
:10071000101BD64608F2FD3873EB050002D308F132
:10072000010801E092185B41B8F1000F03DA0020E4
:100730000146BDE8F08D00204FF480110646844646
:100740000EE0171B73EB050705D3121B63EB0503C4
:1007500006434CEA010C49084FEA300092185B410D
:1007600050EA0107EDD152EA030012D082EA0400F8
:1007700083EA0501084305D0101BAB4106D20122D4
:10078000002306E000224FF0004302E06FF0010278
:1007900053101AEB06004CEB085110EB0A0041EB2A
:1007A0000B01BDE8F04D00F065B8C1F30A52C1F38A
:1007B000130140F2FF3341F480119A4202DA002023
:1007C0000146704740F233439A42A2F2334202DCC0
:1007D000524200F02DB8FFF71ABE000030B5041EDB
:1007E00071F1000404DB4FF00044404264EB01016E
:1007F000141E73F1000405DB1C464FF00043524207
:1008000063EB0403994208BF904230BD064C074D8C
:1008100006E0E06840F0010394E8070098471034D0
:10082000AC42F6D3FFF7B4FC309D0008509D0008A1
:10083000202A04DB203A21FA02F00021704721FA35
:1008400002F3D040C2F1200291400843194670479C
:10085000202A06DBCB17203A41FA02F043EAE07384
:1008600006E041FA02F3D040C2F120029140084371
:100870001946704710B5141E73F1000408DA401CC5
:1008800041F1000192185B411A4301D120F00100AF
:1008900010BD2DE9F04D92469B4611B1B1FA81F29F
:1008A00002E0B0FA80F220329046FFF7B0FD044635
:1008B0000F4640EA0A0041EA0B0153465A460843F4
:1008C00013D0114653EA010019D0C8F14002504636
:1008D000FFF7AEFF05460E46504659464246FFF723
:1008E00096FD084305D0012004E020463946BDE8C6
:1008F000F08D0020054346EAE0762C4337430A9802
:100900006305E40AA0EB08000022FD0A44EA47540C
:100910000A3002D500200146E9E7010510196941B6
:10092000DDE9084500196941BDE8F04DA2E770B561
:100930008C1810F8015B15F0070301D110F8013B8A
:100940002A1106D110F8012B03E010F8016B01F811
:10095000016B5B1EF9D12B0705D40023521E0DD469
:1009600001F8013BFAE710F8013BCB1A921C03E0B7
:1009700013F8015B01F8015B521EF9D5A142D8D3EF
:10098000002070BD1FB500BF08F088FFF94908605E
:1009900002F098FE0BE2322008F03CF9F6480078AD
:1009A0006B28F7D1F44840787328F3D1F248807867
:1009B0007428EFD1F048C0787A28EBD13020EE4986
:1009C000087002F07FFEED4890ED000ABDEEC00A0F
:1009D000EB4880ED000AEB4890ED000ABDEEC00A3E
:1009E000E94880ED000A4FF416701621CDE9001099
:1009F00003460A46CDE902100146162003F0ECFE3C
:100A0000DCE00A21DB4808F033F9E0480068002800
:100A100065DDDB4890ED000AB8EEC00AD748D0ED9E
:100A2000000A70EE600AD9480068193800EE100A12
:100A3000B8EEC00AF4EEC00AF1EE10FA04DD04F0DC
:100A40006BF802F03FFEBAE0D1480068012814D1EB
:100A500004F092FA02F0F8FC9FEDCE0A05F062F87D
:100A60009FEDCC0A05F0A6F89FEDCA0A05F07EF8C6
:100A70009FEDC80A05F0C2F8A0E0C548006802284A
:100A800014D104F079FA02F031FD9FEDC30A05F0AC
:100A900049F89FEDC10A05F08DF89FEDBE0A05F0FB
:100AA00065F89FEDBC0A05F0A9F887E0B848006832
:100AB00003284BD104F060FA02F070FD9FEDB60AF6
:100AC00005F030F89FEDB40A05F074F89FEDB20A16
:100AD00005F04CF89FEDB00A05F090F86FE0AB48D8
:100AE0000068002865DAA64890ED000AB8EEC00A52
:100AF000A248D0ED000A70EE600AA44800681930E0
:100B000000EE100AB8EEC00AF4EEC00AF1EE10FAD8
:100B100004D204F001F802F0D5FD50E09C480068D2
:100B2000012814D104F028FA02F08EFC9FED9A0AF5
:100B300004F0F8FF9FED980A05F03CF89FED960A47
:100B400005F014F89FED940A05F058F836E0904847
:100B50000068022814D104F00FFA02F0C7FC9FEDE0
:100B60008D0A04F0DFFF9FED8B0A05F023F89FED5F
:100B70008A0A04F0FBFF9FED880A05F03FF81DE0AC
:100B800083480068032819D104F0F6F902F006FD45
:100B90009FED800A04F0C6FF9FED7E0A05F00AF87B
:100BA0009FED7C0A04F0E2FF9FED7A0A05F026F83B
:100BB00004E003F0B1FF02F085FD00E021E700BF93
:100BC000F3E00A216B4808F053F8744800680028E5
:100BD00065DD6D4890ED000AB8EEC00A6948D0EDB9
:100BE000000A70EE600A6D4800680A3800EE100ACC
:100BF000B8EEC00AF4EEC00AF1EE10FA04DD03F01C
:100C00008BFF02F05FFDD1E061480068012814D13C
:100C100004F0B2F902F018FC9FED5E0A04F082FFC6
:100C20009FED5C0A04F0C6FF9FED5B0A04F09EFF97
:100C30009FED590A04F0E2FFB7E05548006802282A
:100C400014D104F099F902F051FC9FED520A04F01E
:100C500069FF9FED500A04F0ADFF9FED4E0A04F0CE
:100C600085FF9FED4C0A04F0C9FF9EE048480068EC
:100C7000032813D104F080F902F090FC9FED460A9E
:100C800004F050FF9FED440A04F094FF9FED410AE9
:100C900004F06CFF9FED3F0A04F0B0FF85E03F4891
:100CA000006800287CDA384890ED000AB8EEC00AE7
:100CB0003448D0ED000A70EE600A384800680A3007
:100CC00000EE100AB8EEC00AF4EEC00AF1EE10FA17
:100CD00004D203F021FF02F0F5FC67E02C48006825
:100CE000012814D104F048F902F0AEFB9FED2A0A66
:100CF00004F018FF9FED280A04F05CFF9FED250A21
:100D000004F034FF9FED230A04F078FF4DE0204803
:100D10000068022814D104F02FF902F0E7FB9FEDE0
:100D20001E0A04F0FFFE9FED1C0A04F043FF9FED36
:100D30001A0A04F01BFF9FED180A04F05FFF34E06D
:100D400013480068032830D104F016F902F026FC9D
:100D50009FED100A04F0E6FE9FED0E0A04F02AFF54
:100D60009FED0D0A04F002FF9FED0B0A04F046FF11
:100D70001BE015E02C000020640100206801002029
:100D8000300000206C010020340000205C010020B5
:100D900028000020CDCC4CC0CDCC4C4060010020C0
:100DA00003F0BAFE02F08EFC00E00AE700BFF2E5B5
:100DB00010B51FE004F0E0F80A2007F02BFFB2EEB8
:100DC0000E0A04F0AFFEBAEE0E0A04F0F3FEBAEE1D
:100DD0000E0A04F0CBFEB2EE0E0A04F00FFF074835
:100DE00090ED000ADFED060AB4EEE00AF1EE10FA2B
:100DF00000DB00E0DEE700BF10BD00007001002056
:100E000000002F4310B51FE004F0B6F80A2007F0E9
:100E100001FFB2EE0E0A04F085FEBAEE0E0A04F0EF
:100E2000C9FEBAEE0E0A04F0A1FEB2EE0E0A04F0FC
:100E3000E5FE074890ED000ADFED060AB4EEE00A91
:100E4000F1EE10FA00DB00E0DEE700BF10BD0000AD
:100E5000700100200000AA422DE9F0412DED0A8B1F
:100E600084B004460E46F0EE40AAB0EE60BAF0EE52
:100E700041BA1546F0EE619AB0EE42AA4FF00A0868
:100E800008F00CFDFD49086000278AEE8B0AB0EEE1
:100E900040CAB0EE6A8AB1EE020A3AEEC00AC0EE6B
:100EA0002B0AF0EE60CA78201621CDE90010034627
:100EB0000A46CDE902100146162003F08DFC02F02F
:100EC00001FCB2EE040AF4EEC0AAF1EE10FA02D868
:100ED000DFEDEB8A12E0B2EE040AF4EEC0AAF1EE06
:100EE00010FA09DDB2EE0E0AF4EEC0AAF1EE10FA25
:100EF00002D8DFEDE48A01E0F7EE008A6CE2B4EE9E
:100F0000EA9AF1EE10FA03D239EE0C0AB0EE409AEA
:100F1000012F0AD1B1EE020AB4EEC08AF1EE10FA46
:100F200003DD38EE6C0AB0EE408A04F025F802F0DA
:100F30008BFA0A21D14807F09BFE002C7DD100EEF0
:100F4000105AB8EEC00A3AEE400ACF48D0ED000A77
:100F5000B4EEE00AF1EE10FA2CDDCC4890ED001A68
:100F6000F0EE490A48EEC10AB0EE600A04F0DAFD7C
:100F7000C64890ED001AF0EE490A48EE810AB0EE3C
:100F8000600A04F017FEF1EE490AC04890ED001A1D
:100F900048EE810AB0EE600A04F0E8FDF1EE490A7D
:100FA000BA4890ED001A48EEC10AB0EE600A04F0AB
:100FB00025FE11E20127B1EE040A3AEE400AB248DA
:100FC000D0ED000AB4EEE00AF1EE10FA0FD2B1EE65
:100FD000040A3AEE000AD0ED000AB4EEE00AF1EE9F
:100FE00010FA04DD03F098FD02F06CFBF5E1A74870
:100FF00090ED001ADFEDA61AF0EE480A41EEC10AA4
:10100000B0EE600A04F08EFDA04890ED001ADFED0E
:10101000A01AF0EE480A41EE810AB0EE600A04F030
:10102000C9FDF1EE480A994890ED001ADFED981AD3
:1010300041EE810AB0EE600A00E00FE004F096FD98
:10104000F1EE480A914890ED001ADFED911A41EE59
:10105000C10AB0EE600A04F0D1FDBDE1012C7DD1E2
:1010600000EE105AB8EEC00A3AEE000A8648D0EDFB
:10107000000AB4EEE00AF1EE10FA2CD2F1EE490AC1
:10108000824890ED001A48EEC10AB0EE600A04F002
:1010900049FDF1EE490A7D4890ED001A48EE810ABB
:1010A000B0EE600A04F086FD784890ED001AF0EE8C
:1010B000490A48EE810AB0EE600A04F057FD734811
:1010C00090ED001AF0EE490A48EEC10AB0EE600A4F
:1010D00004F094FD80E10127B1EE040A3AEE000A23
:1010E0006948D0ED000AB4EEE00AF1EE10FA0FDD27
:1010F000B1EE040A3AEE400AD0ED000AB4EEE00A7E
:10110000F1EE10FA04D203F007FD02F0DBFA64E11D
:10111000F1EE480A5D4890ED001ADFED5D1A41EEF0
:10112000C10AB0EE600A04F0FDFCF1EE480A57482F
:1011300090ED001ADFED561A41EE810AB0EE600A1A
:1011400004F038FD514890ED001ADFED511AF0EE31
:10115000480A41EE810AB0EE600A00E00FE004F0B8
:1011600005FD4A4890ED001ADFED491AF0EE480AF5
:1011700041EEC10AB0EE600A04F040FD2CE1032C00
:101180007BD100EE105AB8EEC00A39EEC00A4148D1
:10119000D0ED000AB4EEE00AF1EE10FA2CDD3B4887
:1011A00090ED001AF0EE490A48EEC10AB0EE600A6E
:1011B00004F0B8FC354890ED001AF0EE490A48EE0C
:1011C000810AB0EE600A04F0F5FC304890ED001A98
:1011D000F0EE490A48EE810AB0EE600A04F0C6FC5F
:1011E0002A4890ED001AF0EE490A48EEC10AB0EE26
:1011F000600A04F003FDEFE00127B1EE040A39EEC6
:10120000C00A2448D0ED000AB4EEE00AF1EE10FA6C
:101210000FD2B1EE040A39EE800AD0ED000AB4EE26
:10122000E00AF1EE10FA04DD03F076FC02F04AFA6F
:10123000D3E0164890ED001ADFED151AF0EE480ADB
:1012400041EEC10AB0EE600A04F06CFC0F4890ED6C
:10125000001ADFED0F1AF0EE480A41EE810AB0EEF7
:10126000600A04F0A7FC094890ED001ADFED081AA7
:10127000F0EE480A41EE810A0EE01FE0080100206E
:10128000F853E33EFED4383F6C010020D400002028
:10129000CDCCCC3D68010020B0EE600A04F066FCC5
:1012A000F04890ED001A5FED061AF0EE480A41EEA4
:1012B000C10AB0EE600A04F0A1FC8DE0022C39D125
:1012C00000EE105AB8EEC00A39EE800AE648D0EDBA
:1012D000000AB4EEE00AF1EE10FA2CD2F1EE490A5F
:1012E000E04890ED001A48EEC10AB0EE600A04F042
:1012F00019FCF1EE490ADB4890ED001A48EE810A2C
:10130000B0EE600A04F056FCF1EE490AD54890EDC3
:10131000001A48EE810AB0EE600A04F027FCF1EEF4
:10132000490AD04890ED001A48EEC10AB0EE600AB2
:1013300004F064FC50E00127B1EE040A39EE800AA3
:10134000C948D0ED000AB4EEE00AF1EE10FA0FDD64
:10135000B1EE040A39EEC00AD0ED000AB4EEE00A9C
:10136000F1EE10FA04D203F0D7FB02F0ABF934E04F
:10137000F1EE480ABB4890ED001A5FED3B1A41EED2
:10138000C10AB0EE600A04F0CDFBF1EE480AB548A0
:1013900090ED001A5FED421A41EE810AB0EE600A4C
:1013A00004F008FCF1EE480AAE4890ED001A5FED3B
:1013B000481A41EE810AB0EE600A04F0D7FBF1EE64
:1013C000480AA84890ED001A5FED4F1A41EEC10A95
:1013D000B0EE600A04F012FC91E500BF3BE126B9D3
:1013E00003F09AFB02F06EF936E103F0C5FD02F05E
:1013F0002BF80A219D4807F03BFC0CB1012C7BD156
:10140000994890ED000AB4EEE90AF1EE10FA44DDD5
:10141000B1EE040A39EE800AD0ED000AB4EEE00A1B
:10142000F1EE10FA04DD03F077FB02F04BF913E163
:101430008C4890ED001ADFED8E1AF9EE020A41EEAB
:10144000C10AB0EE600A04F06DFB864890ED001A08
:10145000DFED871AF9EE020A41EE810AB0EE600A6A
:1014600004F0A8FB7F4890ED001ADFED811AF9EE39
:10147000020A41EE810AB0EE600A04F077FB794877
:1014800090ED001ADFED7A1AF9EE020A41EEC10A78
:10149000B0EE600A04F0B2FBDDE0B1EE040A39EE12
:1014A000C00A7148D0ED000AB4EEE00AF1EE10FA7D
:1014B00004D203F031FB02F005F9CDE0694890ED6C
:1014C000001ADFED6B1AF1EE020A41EEC10AB0EE2E
:1014D000600A04F027FB634890ED001ADFED641A00
:1014E000F1EE020A41EE810AB0EE600A04F062FBFE
:1014F0005C4890ED001A00E017E0DFED5D1AF1EEB8
:10150000020A41EE810AB0EE600A04F02FFB554852
:1015100090ED001ADFED561AF1EE020A41EEC10A13
:10152000B0EE600A04F06AFB95E0032C01D0022CB7
:101530004BD1504890ED000AB4EECA0AF1EE10FA11
:1015400044DDB1EE040A3AEE000AD0ED000AB4EE32
:10155000E00AF1EE10FA04DD03F0DEFA02F0B2F870
:101560007AE0404890ED001ADFED411AF9EE020AE8
:1015700041EEC10AB0EE600A04F0D4FA394890EDA9
:10158000001ADFED3B1AF9EE020A41EE810AB0EED5
:10159000600A04F00FFB334890ED001ADFED341AB7
:1015A000F1EE020A41EE810AB0EE600A04F0DEFAC2
:1015B0002C4890ED001ADFED2E1AF1EE020A41EEF2
:1015C000C10AB0EE600A04F019FB44E0B1EE040A6F
:1015D0003AEE400A2748D0ED000AB4EEE00AF1EEF8
:1015E00010FA04D203F098FA02F06CF834E01D48C7
:1015F00090ED001ADFED1E1AF1EE020A41EEC10A6B
:10160000B0EE600A04F08EFA164890ED001ADFED95
:10161000181AF1EE020A41EE810AB0EE600A04F0F7
:10162000C9FA104890ED001ADFED111AF9EE020A1E
:1016300041EE810AB0EE600A04F098FA094890ED94
:10164000001ADFED0B1AF9EE020A41EEC10AB0EE04
:10165000600A04F0D3FAC2E600BF04B0BDEC0A8B06
:10166000BDE8F081D40000206801002008010020BE
:10167000CDCC4C3E6C0100202DE9F0412DED0A8BC4
:1016800084B004460E46F0EE40AAB0EE60BAF0EE2A
:1016900041BA1546F0EE619AB0EE42AA4FF00A0840
:1016A00008F0FCF8FD49086000278AEE8B0AB0EECE
:1016B00040CAB0EE6A8AB1EE020A3AEEC00AC0EE43
:1016C0002B0AF0EE60CA78201621CDE900100346FF
:1016D0000A46CDE902100146162003F07DF801F01C
:1016E000F1FFB2EE040AF4EEC0AAF1EE10FA02D84D
:1016F000DFEDEB8A12E0B2EE040AF4EEC0AAF1EEDE
:1017000010FA09DDB2EE0E0AF4EEC0AAF1EE10FAFC
:1017100002D8DFEDE48A01E0F7EE008A6CE2B4EE75
:10172000EA9AF1EE10FA03D239EE0C0AB0EE409AC2
:10173000012F0AD1B1EE020AB4EEC08AF1EE10FA1E
:1017400003DD38EE6C0AB0EE408A03F015FC01F0C0
:10175000CDFE0A21D14807F08BFA002C7DD100EE96
:10176000105AB8EEC00A3AEE400ACF48D0ED000A4F
:10177000B4EEE00AF1EE10FA2CDDCC4890ED001A40
:10178000F0EE490A48EEC10AB0EE600A04F0CAF968
:10179000C64890ED001AF0EE490A48EE810AB0EE14
:1017A000600A04F007FAC14890ED001AF0EE490A09
:1017B00048EE810AB0EE600A04F0D8F9BB4890ED1B
:1017C000001AF0EE490A48EEC10AB0EE600A04F0D1
:1017D00015FA11E20127B1EE040A3AEE400AB248C6
:1017E000D0ED000AB4EEE00AF1EE10FA0FD2B1EE3D
:1017F000040A3AEE000AD0ED000AB4EEE00AF1EE77
:1018000010FA04DD03F088F901F05CFFF5E1A74868
:1018100090ED001ADFEDA61AF0EE480A41EEC10A7B
:10182000B0EE600A04F07EF9A04890ED001ADFEDFA
:10183000A01AF0EE480A41EE810AB0EE600A04F008
:10184000B9F99A4890ED001ADFED991AF0EE480ABE
:1018500041EE810AB0EE600A00E00FE004F086F984
:10186000924890ED001ADFED921AF0EE480A41EE30
:10187000C10AB0EE600A04F0C1F9BDE1012C7DD1CE
:1018800000EE105AB8EEC00A3AEE000A8648D0EDD3
:10189000000AB4EEE00AF1EE10FA2CD2F1EE490A99
:1018A000824890ED001A48EEC10AB0EE600A04F0DA
:1018B00039F9F1EE490A7D4890ED001A48EE810AA7
:1018C000B0EE600A04F076F9F1EE490A774890ED3F
:1018D000001A48EE810AB0EE600A04F047F9F1EE12
:1018E000490A724890ED001A48EEC10AB0EE600A4B
:1018F00004F084F980E10127B1EE040A3AEE000A0F
:101900006948D0ED000AB4EEE00AF1EE10FA0FDDFE
:10191000B1EE040A3AEE400AD0ED000AB4EEE00A55
:10192000F1EE10FA04D203F0F7F801F0CBFE64E117
:10193000F1EE480A5D4890ED001ADFED5D1A41EEC8
:10194000C10AB0EE600A04F0EDF8F1EE480A57481B
:1019500090ED001ADFED561A41EE810AB0EE600AF2
:1019600004F028F9F1EE480A504890ED001ADFED36
:10197000501A41EE810AB0EE600A00E00FE004F078
:10198000F5F8F1EE480A494890ED001ADFED481AE3
:1019900041EEC10AB0EE600A04F030F92CE1032CEC
:1019A0007BD100EE105AB8EEC00A39EEC00A4148A9
:1019B000D0ED000AB4EEE00AF1EE10FA2CDDF1EE03
:1019C000490A3A4890ED001A48EEC10AB0EE600AA2
:1019D00004F0A8F8F1EE490A344890ED001A48EEF8
:1019E000810AB0EE600A04F0E5F8304890ED001A84
:1019F000F0EE490A48EE810AB0EE600A04F0B6F84B
:101A00002A4890ED001AF0EE490A48EEC10AB0EEFD
:101A1000600A04F0F3F8EFE00127B1EE040A39EEB2
:101A2000C00A2448D0ED000AB4EEE00AF1EE10FA44
:101A30000FD2B1EE040A39EE800AD0ED000AB4EEFE
:101A4000E00AF1EE10FA04DD03F066F801F03AFE68
:101A5000D3E0F1EE480A154890ED001ADFED141AB4
:101A600041EEC10AB0EE600A04F05CF8F1EE480AFB
:101A70000E4890ED001ADFED0E1A41EE810AB0EE2D
:101A8000600A04F097F8094890ED001ADFED081A93
:101A9000F0EE480A41EE810A0EE01FE00C01002042
:101AA000F853E33EFED4383F6C010020D400002000
:101AB000CDCCCC3D68010020B0EE600A04F056F8B1
:101AC000F04890ED001A5FED061AF0EE480A41EE7C
:101AD000C10AB0EE600A04F091F88DE0022C39D111
:101AE00000EE105AB8EEC00A39EE800AE648D0ED92
:101AF000000AB4EEE00AF1EE10FA2CD2E14890EDC3
:101B0000001AF0EE490A48EEC10AB0EE600A04F08D
:101B100009F8DC4890ED001AF0EE490A48EE810A17
:101B2000B0EE600A04F046F8F1EE490AD54890EDAF
:101B3000001A48EE810AB0EE600A04F017F8F1EEE0
:101B4000490AD04890ED001A48EEC10AB0EE600A8A
:101B500004F054F850E00127B1EE040A39EE800A8F
:101B6000C948D0ED000AB4EEE00AF1EE10FA0FDD3C
:101B7000B1EE040A39EEC00AD0ED000AB4EEE00A74
:101B8000F1EE10FA04D202F0C7FF01F09BFD34E041
:101B9000BC4890ED001A5FED3A1AF0EE480A41EEAB
:101BA000C10AB0EE600A03F0BDFFB64890ED001A1E
:101BB0005FED411AF0EE480A41EE810AB0EE600A8C
:101BC00003F0F8FFF1EE480AAE4890ED001A5FED21
:101BD000481A41EE810AB0EE600A03F0C7FFF1EE49
:101BE000480AA84890ED001A5FED4F1A41EEC10A6D
:101BF000B0EE600A04F002F891E500BF3BE126B9BF
:101C000002F08AFF01F05EFD36E103F0B5F901F064
:101C10006DFC0A219D4807F02BF80CB1012C7BD1FB
:101C2000994890ED000AB4EEE90AF1EE10FA44DDAD
:101C3000B1EE040A39EE800AD0ED000AB4EEE00AF3
:101C4000F1EE10FA04DD02F067FF01F03BFD13E155
:101C50008C4890ED001ADFED8E1AF1EE020A41EE8B
:101C6000C10AB0EE600A03F05DFF864890ED001AED
:101C7000DFED871AF1EE020A41EE810AB0EE600A4A
:101C800003F098FF7F4890ED001ADFED811AF9EE1E
:101C9000020A41EE810AB0EE600A03F067FF79485C
:101CA00090ED001ADFED7A1AF9EE020A41EEC10A50
:101CB000B0EE600A03F0A2FFDDE0B1EE040A39EEF7
:101CC000C00A7148D0ED000AB4EEE00AF1EE10FA55
:101CD00004D202F021FF01F0F5FCCDE0694890ED5F
:101CE000001ADFED6B1AF9EE020A41EEC10AB0EEFE
:101CF000600A03F017FF634890ED001ADFED641AE5
:101D0000F9EE020A41EE810AB0EE600A03F052FFDA
:101D10005C4890ED001A00E017E0DFED5D1AF1EE8F
:101D2000020A41EE810AB0EE600A03F01FFF554837
:101D300090ED001ADFED561AF1EE020A41EEC10AEB
:101D4000B0EE600A03F05AFF95E0032C01D0022C9C
:101D50004BD1504890ED000AB4EECA0AF1EE10FAE9
:101D600044DDB1EE040A3AEE000AD0ED000AB4EE0A
:101D7000E00AF1EE10FA04DD02F0CEFE01F0A2FC62
:101D80007AE0404890ED001ADFED411AF9EE020AC0
:101D900041EEC10AB0EE600A03F0C4FE394890ED8E
:101DA000001ADFED3B1AF9EE020A41EE810AB0EEAD
:101DB000600A03F0FFFE334890ED001ADFED341A9D
:101DC000F9EE020A41EE810AB0EE600A03F0CEFE9F
:101DD0002C4890ED001ADFED2E1AF9EE020A41EEC2
:101DE000C10AB0EE600A03F009FF44E0B1EE040A54
:101DF0003AEE400A2748D0ED000AB4EEE00AF1EED0
:101E000010FA04D202F088FE01F05CFC34E01D48B8
:101E100090ED001ADFED1E1AF1EE020A41EEC10A42
:101E2000B0EE600A03F07EFE164890ED001ADFED7A
:101E3000181AF1EE020A41EE810AB0EE600A03F0D0
:101E4000B9FE104890ED001ADFED111AF1EE020A0A
:101E500041EE810AB0EE600A03F088FE094890ED79
:101E6000001ADFED0B1AF1EE020A41EEC10AB0EEE4
:101E7000600A03F0C3FEC2E600BF04B0BDEC0A8BEB
:101E8000BDE8F081D4000020680100200C01002092
:101E9000CDCC4C3E6C0100202DE9F0412DED0A8B9C
:101EA00084B004460E46F0EE40AAB0EE60BAF0EE02
:101EB00041BA1546F0EE619AB0EE42AA4FF00A0818
:101EC00007F0ECFCFD49086000278AEE8B0AB0EEB3
:101ED00040CAB0EE6A8AB1EE020A3AEEC00AC0EE1B
:101EE0002B0AF0EE60CA78201621CDE900100346D7
:101EF0000A46CDE902100146162002F06DFC01F001
:101F0000E1FBB2EE040AF4EEC0AAF1EE10FA02D838
:101F1000DFEDEB8A12E0B2EE040AF4EEC0AAF1EEB5
:101F200010FA09DDB2EE0E0AF4EEC0AAF1EE10FAD4
:101F300002D8DFEDE48A01E0F7EE008A6CE2B4EE4D
:101F4000EA9AF1EE10FA03D239EE0C0AB0EE409A9A
:101F5000012F0AD1B1EE020AB4EEC08AF1EE10FAF6
:101F600003DD38EE6C0AB0EE408A03F005F801F0AC
:101F700015FB0A21D14806F07BFE002C7DD100EE36
:101F8000105AB8EEC00A3AEE400ACF48D0ED000A27
:101F9000B4EEE00AF1EE10FA2CDDF1EE490ACB487E
:101FA00090ED001A48EEC10AB0EE600A03F0BAFDE7
:101FB000F1EE490AC54890ED001A48EE810AB0EEEC
:101FC000600A03F0F7FDC14890ED001AF0EE490AEF
:101FD00048EE810AB0EE600A03F0C8FDBB4890ED00
:101FE000001AF0EE490A48EEC10AB0EE600A03F0AA
:101FF00005FE11E20127B1EE040A3AEE400AB248AA
:10200000D0ED000AB4EEE00AF1EE10FA0FD2B1EE14
:10201000040A3AEE000AD0ED000AB4EEE00AF1EE4E
:1020200010FA04DD02F078FD01F04CFBF5E1F1EE71
:10203000480AA64890ED001ADFEDA51A41EEC10A44
:10204000B0EE600A03F06EFDF1EE480A9F4890ED95
:10205000001ADFED9F1A41EE810AB0EE600A03F02C
:10206000A9FD9A4890ED001ADFED991AF0EE480AA2
:1020700041EE810AB0EE600A00E00FE003F076FD69
:10208000924890ED001ADFED921AF0EE480A41EE08
:10209000C10AB0EE600A03F0B1FDBDE1012C7DD1B3
:1020A00000EE105AB8EEC00A3AEE000A8648D0EDAB
:1020B000000AB4EEE00AF1EE10FA2CD2834890ED5B
:1020C000001AF0EE490A48EEC10AB0EE600A03F0C9
:1020D00029FD7E4890ED001AF0EE490A48EE810A8B
:1020E000B0EE600A03F066FDF1EE490A774890ED24
:1020F000001A48EE810AB0EE600A03F037FDF1EEF7
:10210000490A724890ED001A48EEC10AB0EE600A22
:1021100003F074FD80E10127B1EE040A3AEE000AF3
:102120006948D0ED000AB4EEE00AF1EE10FA0FDDD6
:10213000B1EE040A3AEE400AD0ED000AB4EEE00A2D
:10214000F1EE10FA04D202F0E7FC01F0BBFA64E110
:102150005E4890ED001ADFED5E1AF0EE480A41EE9F
:10216000C10AB0EE600A03F0DDFC584890ED001A99
:10217000DFED571AF0EE480A41EE810AB0EE600A30
:1021800003F018FDF1EE480A504890ED001ADFED1B
:10219000501A41EE810AB0EE600A00E00FE003F051
:1021A000E5FCF1EE480A494890ED001ADFED481AC7
:1021B00041EEC10AB0EE600A03F020FD2CE1032CD1
:1021C0007BD100EE105AB8EEC00A39EEC00A414881
:1021D000D0ED000AB4EEE00AF1EE10FA2CDDF1EEDB
:1021E000490A3A4890ED001A48EEC10AB0EE600A7A
:1021F00003F098FCF1EE490A344890ED001A48EEDD
:10220000810AB0EE600A03F0D5FCF1EE490A2F48CE
:1022100090ED001A48EE810AB0EE600A03F0A6FCC9
:10222000F1EE490A294890ED001A48EEC10AB0EED5
:10223000600A03F0E3FCEFE00127B1EE040A39EE97
:10224000C00A2448D0ED000AB4EEE00AF1EE10FA1C
:102250000FD2B1EE040A39EE800AD0ED000AB4EED6
:10226000E00AF1EE10FA04DD02F056FC01F02AFA61
:10227000D3E0F1EE480A154890ED001ADFED141A8C
:1022800041EEC10AB0EE600A03F04CFCF1EE480AE0
:102290000E4890ED001ADFED0E1A41EE810AB0EE05
:1022A000600A03F087FCF1EE480A084890ED001A36
:1022B000DFED071A41EE810A0EE01FE01001002059
:1022C000F853E33EFED4383F6C010020D4000020D8
:1022D000CDCCCC3D68010020B0EE600A03F046FC96
:1022E000F1EE480AEF4890ED001A5FED071A41EE53
:1022F000C10AB0EE600A03F081FC8DE0022C39D1F6
:1023000000EE105AB8EEC00A39EE800AE648D0ED69
:10231000000AB4EEE00AF1EE10FA2CD2E14890ED9A
:10232000001AF0EE490A48EEC10AB0EE600A03F066
:10233000F9FBDC4890ED001AF0EE490A48EE810AFC
:10234000B0EE600A03F036FCD64890ED001AF0EECD
:10235000490A48EE810AB0EE600A03F007FCD14852
:1023600090ED001AF0EE490A48EEC10AB0EE600A9C
:1023700003F044FC50E00127B1EE040A39EE800A74
:10238000C948D0ED000AB4EEE00AF1EE10FA0FDD14
:10239000B1EE040A39EEC00AD0ED000AB4EEE00A4C
:1023A000F1EE10FA04D202F0B7FB01F08BF934E041
:1023B000BC4890ED001A5FED3A1AF0EE480A41EE83
:1023C000C10AB0EE600A03F0ADFBB64890ED001A0A
:1023D0005FED411AF0EE480A41EE810AB0EE600A64
:1023E00003F0E8FBAF4890ED001A5FED471AF0EEFE
:1023F000480A41EE810AB0EE600A03F0B7FBA94833
:1024000090ED001A5FED4E1AF0EE480A41EEC10A57
:10241000B0EE600A03F0F2FB91E500BF3BE126B9A4
:1024200002F07AFB01F04EF936E102F0A5FD01F071
:10243000B5F80A219D4806F01BFC0CB1012C7BD19C
:10244000994890ED000AB4EEE90AF1EE10FA44DD85
:10245000B1EE040A39EE800AD0ED000AB4EEE00ACB
:10246000F1EE10FA04DD02F057FB01F02BF913E155
:102470008C4890ED001ADFED8E1AF1EE020A41EE63
:10248000C10AB0EE600A03F04DFB864890ED001AD9
:10249000DFED871AF1EE020A41EE810AB0EE600A22
:1024A00003F088FB7F4890ED001ADFED811AF1EE12
:1024B000020A41EE810AB0EE600A03F057FB794848
:1024C00090ED001ADFED7A1AF1EE020A41EEC10A30
:1024D000B0EE600A03F092FBDDE0B1EE040A39EEE3
:1024E000C00A7148D0ED000AB4EEE00AF1EE10FA2D
:1024F00004D202F011FB01F0E5F8CDE0694890ED5F
:10250000001ADFED6B1AF9EE020A41EEC10AB0EED5
:10251000600A03F007FB634890ED001ADFED641AD0
:10252000F9EE020A41EE810AB0EE600A03F042FBC6
:102530005C4890ED001A00E017E0DFED5D1AF9EE5F
:10254000020A41EE810AB0EE600A03F00FFB554823
:1025500090ED001ADFED561AF9EE020A41EEC10ABB
:10256000B0EE600A03F04AFB95E0032C01D0022C88
:102570004BD1504890ED000AB4EECA0AF1EE10FAC1
:1025800044DDB1EE040A3AEE000AD0ED000AB4EEE2
:10259000E00AF1EE10FA04DD02F0BEFA01F092F862
:1025A0007AE0404890ED001ADFED411AF1EE020AA0
:1025B00041EEC10AB0EE600A03F0B4FA394890ED7A
:1025C000001ADFED3B1AF1EE020A41EE810AB0EE8D
:1025D000600A03F0EFFA334890ED001ADFED341A89
:1025E000F9EE020A41EE810AB0EE600A03F0BEFA8B
:1025F0002C4890ED001ADFED2E1AF9EE020A41EE9A
:10260000C10AB0EE600A03F0F9FA44E0B1EE040A40
:102610003AEE400A2748D0ED000AB4EEE00AF1EEA7
:1026200010FA04D202F078FA01F04CF834E01D48B8
:1026300090ED001ADFED1E1AF9EE020A41EEC10A12
:10264000B0EE600A03F06EFA164890ED001ADFED66
:10265000181AF9EE020A41EE810AB0EE600A03F0A0
:10266000A9FA104890ED001ADFED111AF1EE020AF6
:1026700041EE810AB0EE600A03F078FA094890ED65
:10268000001ADFED0B1AF1EE020A41EEC10AB0EEBC
:10269000600A03F0B3FAC2E600BF04B0BDEC0A8BD7
:1026A000BDE8F081D4000020680100201001002066
:1026B000CDCC4C3E6C010020FEE3FA480078722835
:1026C00021D1F848407875281DD1F64880786E28C9
:1026D00019D1F448C078322815D13020F14908705A
:1026E000DFEDF13A9FEDF13ADFEDF12A9FEDF02AAF
:1026F000DFEDF01A9FEDF01ADFEDF00A9FEDF00A22
:1027000003F000FB55E2E7480078732839D1E5482B
:102710004078652835D1E3488078742831D1E14884
:10272000C07872282DD13020DE49087000F0A0FF5B
:10273000DFEDDD1A9FEDE31ADFEDDD0A9FEDDC0A28
:1027400002F036FD4FF4FA6006F064FADFEDDE1AAF
:102750009FEDDD1ADFEDDC0A9FEDDB0A02F0F4FCF1
:10276000DFEDD91A9FEDD81ADFEDD70A9FEDD60A13
:1027700002F01EFD4FF4FA7006F04CFA02F0BCF8BD
:1027800017E2C8480078732857D1C64840786528B2
:1027900053D1C448807874284FD1C248C078522899
:1027A0004BD13020BF490870DFEDBF1A9FEDC51A2D
:1027B000DFEDBF0A9FEDBE0A02F0FAFC4FF4FA60AB
:1027C00006F028FADFEDC01A9FEDBF1ADFEDBE0A52
:1027D0009FEDBD0A02F030FCDFEDBB1A9FEDBA1A87
:1027E000DFEDB90A9FEDB80A02F0E2FC4FF4FA708F
:1027F00006F010FADFEDAC1A9FEDB21ADFEDAC0A6D
:102800009FEDAB0A02F0FCFCDFEDAF3A9FEDAE3A74
:10281000DFEDAD2A9FEDAC2ADFEDAC1A9FEDAC1ACF
:10282000DFEDAC0A9FEDAC0A03F06CFA4FF4FA70DE
:1028300006F0F0F902F060F8BBE19A4800787328DE
:1028400039D198484078652835D1964880787428E1
:1028500031D19448C07867282DD130209149087033
:1028600000F006FFDFED901A9FED961ADFED900A5B
:102870009FED8F0A01F012FE4FF4FA6006F0CAF9DC
:10288000DFED911A9FED901ADFED8F0A9FED8E0A12
:1028900001F0D0FDDFED8C1A9FED8B1ADFED8A0A77
:1028A0009FED890A01F0FAFD4FF4FA7006F0B2F9D3
:1028B00002F022F87DE17B480078732857D17948EF
:1028C0004078652853D17748807874284FD175486F
:1028D000C07847284BD1302072490870DFED721A5A
:1028E0009FED781ADFED720A9FED710A01F0D6FDB7
:1028F0004FF4FA6006F08EF9DFED731A9FED721A4D
:10290000DFED710A9FED700A01F00CFDDFED6E1A2C
:102910009FED6D1ADFED6C0A9FED6B0A01F0BEFDB5
:102920004FF4FA7006F076F9DFED5F1A9FED651A45
:10293000DFED5F0A9FED5E0A01F0D8FDDFED623A40
:102940009FED613ADFED602A9FED5F2ADFED631AAC
:102950009FED631ADFED630A9FED630A03F0D2F97E
:102960004FF4FA7006F056F901F0C6FF21E14D4828
:102970000078732839D14B484078652835D14948CB
:102980008078742831D14748C07862282DD1302012
:102990004449087000F06CFEDFED431A9FED491AC0
:1029A000DFED430A9FED420A00F0F0FC4FF4FA60BD
:1029B00006F030F9DFED441A9FED431ADFED420ACD
:1029C0009FED410A00F0AEFCDFED3F1A9FED3E1A8D
:1029D000DFED3D0A9FED3C0A00F0D8FC4FF4FA70A1
:1029E00006F018F901F088FFD2E32E48007873282A
:1029F00057D12C484078652853D12A4880787428CC
:102A00007CD12848C078422878D1302025490870E8
:102A1000DFED251A9FED2B1ADFED250A9FED240A25
:102A200000F0B4FC4FF4FA6006F0F4F8DFED261A7B
:102A30009FED251ADFED240A9FED230A00F0EAFB43
:102A4000DFED211A9FED201ADFED1F0A9FED1E0A10
:102A500000F09CFC4FF4FA7006F0DCF8DFED121A7F
:102A60009FED181ADFED120A9FED110A00F0B6FC77
:102A7000DFED153A9FED143ADFED132A9FED122A90
:102A8000DFED1A1A9FED1A1ADFED1A0A9FED1A0AE6
:102A900003F038F94FF4FA7006F0BCF801F02CFF9F
:102AA00076E32BE0640100200080BB4400009644E4
:102AB000000034445C0FC442852B6443142E8F42C3
:102AC00014AEBC4200007A440000B443D90EB142B7
:102AD00044AB294346B6CC41235B6142D90EE34265
:102AE000442B6E43912D824291ADBC42D90EDA4205
:102AF000442B5E43235B5A42C9D60943FE48007803
:102B0000712857D1FC484078722853D1FA48807810
:102B100073284FD1F848C07868284BD13020F64947
:102B200008705FED171A1FED181A5FED190A1FEDF7
:102B30001A0A02F0B5FA5FED1C3A1FED1D3A5FED7F
:102B40001E2A1FED1F2A5FED1F1A1FED1F1A5FEDD2
:102B50001F0A1FED1F0A03F0D5F84FF4FA7006F0B4
:102B600059F85FED2F1A1FED291A5FED2F0A1FED9F
:102B7000300A02F01DFB4FF4FA6006F04BF85FEDEF
:102B80002E1A1FED2F1A5FED300A1FED310A02F0E9
:102B9000DBFA5FED331A1FED341A5FED350A1FEDD6
:102BA000360A02F005FB4FF4FA7006F033F801F034
:102BB000A3FEEDE2D0480078712857D1CE48407886
:102BC000672853D1CC48807873284FD1CA48C07841
:102BD00068284BD13020C84908705FED451A1FEDB9
:102BE000461A5FED470A1FED480A01F0CFFB5FED83
:102BF0004A3A1FED4B3A5FED4C2A1FED4D2A5FED2F
:102C0000491A1FED491A5FED490A1FED490A03F001
:102C100079F84FF4FA7005F0FDFF5FED5D1A1FEDD6
:102C2000571A5FED5D0A1FED5E0A01F037FC4FF4A5
:102C3000FA6005F0EFFF5FED5C1A1FED5D1A5FEDC6
:102C40005E0A1FED5F0A01F0F5FB5FED611A1FEDF3
:102C5000621A5FED630A1FED640A01F01FFC4FF476
:102C6000FA7005F0D7FF01F047FE91E2A248007824
:102C7000712857D1A0484078622853D19E48807867
:102C800073284FD19C48C07868284BD130209A498E
:102C900008705FED731A1FED741A5FED750A1FED72
:102CA000760A00F0EBFA5FED783A1FED793A5FEDC6
:102CB0007A2A1FED7B2A5FED731A1FED731A5FED01
:102CC000730A1FED730A03F01DF84FF4FA7005F054
:102CD000A1FF5FED8B1A1FED851A5FED8B0A1FEDCB
:102CE0008C0A00F053FB4FF4FA6005F093FF5FEDA0
:102CF0008A1A1FED8B1A5FED8C0A1FED8D0A00F00A
:102D000011FB5FED8F1A1FED901A5FED910A1FED19
:102D1000920A00F03BFB4FF4FA7005F07BFF01F0E4
:102D2000EBFD35E274480078722819D1724840787A
:102D3000312815D13020704908705FED9D3A1FEDA4
:102D40009E3A5FED9F2A1FEDA02ADFED6C1A9FEDE2
:102D50006C1ADFED6C0A9FED6C0A02F0D3FF17E2EC
:102D600065480078722819D163484078322815D117
:102D70003020614908705FEDAC3A1FEDAD3A5FED70
:102D8000AE2A1FEDAF2ADFED611A9FED611ADFED6C
:102D9000610A9FED610A02F0B5FFF9E1564800783B
:102DA000722819D154484078332815D1302052491F
:102DB00008705FEDBB3A1FEDBC3A5FEDBD2A1FED19
:102DC000BE2ADFED561A9FED561ADFED560A9FED2B
:102DD000560A02F097FFDBE147480078672819D1CF
:102DE00045484078312815D13020434908705FEDBF
:102DF000CA3A1FEDCB3A5FEDCC2A1FEDCD2ADFEDAD
:102E00004B1A9FED4B1ADFED4B0A9FED4B0A02F078
:102E100079FFBDE138480078672819D136484078F5
:102E2000322815D13020344908705FEDD93A1FEDB2
:102E3000DA3A5FEDDB2A1FEDDC2ADFED401A9FED69
:102E4000401ADFED400A9FED400A02F05BFF9FE170
:102E500029480078672819D127484078332815D1A8
:102E60003020254908705FEDE83A1FEDE93A5FED43
:102E7000EA2A1FEDEB2ADFED351A9FED351ADFED5B
:102E8000350A9FED350A02F03DFF81E11A480078CE
:102E900062281BD118484078312817D130201649B4
:102EA00008705FEDF73A1FEDF83A5FEDF92A1FED74
:102EB000FA2ADFED2A1A00E06DE19FED291ADFED15
:102EC000290A9FED290A02F01DFF61E10A480078F6
:102ED000622858D108484078322854D13020064919
:102EE0000870DFED223A9FED213ADFED202A9FEDB9
:102EF0001F2ADFED1F1A3DE064010020D33D83430C
:102F00007B14284252389B421D9AD9423F058C437C
:102F1000C14A6C422B47A042DF4FDD423F0586434A
:102F2000C14A3A422B479B421D9ADD420000824330
:102F30001F852A42B89E9D422BC792426A0C874346
:102F4000FED44B4296439942D7639042CFB7844315
:102F5000D7A339422F1D9B4268D18F42C560814360
:102F600017D929426D679C42DFCF00420000B4436D
:102F7000ACAC89439FED891ADFED890A1FED060A83
:102F800002F0C0FE04E187480078622819D1854824
:102F90004078332815D13020824908705FED0D3A12
:102FA0001FED0E3A5FED0F2A1FED102ADFED7E1A9E
:102FB0009FED7E1ADFED7E0A1FED150A02F0A2FEDC
:102FC000E6E078480078662819D17648407872287B
:102FD00015D13020734908705FED1C3A1FED1D3A82
:102FE0005FED1E2A1FED1F2ADFED721A9FED721A88
:102FF000DFED720A9FED720A02F084FEC8E06948B4
:103000000078662819D167484078672815D13020A4
:10301000644908705FED2B3A1FED2C3A5FED2D2AC5
:103020001FED2E2ADFED671A9FED671ADFED670AA5
:103030009FED670A02F066FEAAE05A48007866280B
:1030400019D158484078622815D130205549087068
:103050005FED3A3A1FED3B3A5FED3C2A1FED3D2A0A
:10306000DFED5C1A9FED5C1ADFED5C0A9FED5C0AF8
:1030700002F048FE8CE04B4800786D281DD149488D
:103080004078642819D147488078722815D13020BB
:10309000444908705FED4B3A1FED4C3A5FED4D2A05
:1030A0001FED4E2ADFED4F1A9FED4F1ADFED4F0A4D
:1030B0009FED4F0A02F026FE6AE03A4800786D283C
:1030C0001DD138484078642819D13648807867285F
:1030D00015D13020334908705FED5C3A1FED5D3A41
:1030E0005FED5E2A1FED5F2ADFED421A9FED421A67
:1030F000DFED420A9FED420A02F004FE48E0294853
:1031000000786D281DD127484078642819D12548BA
:103110008078622815D13020224908705FED6D3A21
:103120001FED6E3A5FED6F2A1FED702ADFED351A45
:103130009FED351ADFED350A9FED350A02F0E2FD0D
:1031400026E0184800787A280FD116484078612880
:103150000BD13020134908700121022005F08CF9B1
:103160004FF47A7005F056FD12E00E48007866289C
:103170000ED10C48407861280AD1302009490870E6
:103180000121084605F078F94FF47A7005F042FD08
:10319000642005F03FFDFFF790BA0000F2D26442D0
:1031A000E3A5A242640100207BF484438FC236422F
:1031B00000009B42AE07CC42213027431058AD405F
:1031C00048E15F4287560B436DE771433B5F234203
:1031D0000080B842E9C60343D5D863439643094209
:1031E0002B470943D90EB14244AB294346B6CC41E3
:1031F000235B6142D90EE342442B6E43912D824200
:1032000091ADBC42D90EDA42442B5E43235B5A4255
:10321000C9D6094310B52DED048BB0EE408AF0EE0F
:10322000608AB0EE419AF0EE619AF0EE693AB0EE43
:10323000493AF0EE682AB0EE482ADFED0C1A9FED0D
:103240000C1ADFED0C0A9FED0C0A02F05BFD4FF447
:10325000FA7005F0DFFC0121022005F00DF94FF4B2
:103260007A7005F0D7FCBDEC048B10BDC5608143BE
:1032700017D929426D679C42DFCF004210B52DED72
:10328000048BB0EE408AF0EE608AB0EE419AF0EE28
:10329000619ADFED1B3A9FED1A3ADFED192A9FED97
:1032A000182ADFED181A9FED181ADFED180A9FEDA6
:1032B000180A02F027FD4FF47A7005F0ABFCF0EE2F
:1032C000693AB0EE493AF0EE682AB0EE482ADFEDEE
:1032D000111A9FED111ADFED110A9FED110A02F08C
:1032E00011FD4FF4FA7005F095FC0121022005F064
:1032F000C3F84FF47A7005F08DFCBDEC048B10BD63
:1033000000003444D90EDA42442B5E43235B5A4218
:10331000C9D60943E9C60343D5D863439643094256
:103320002B47094310B52DED048BB0EE408AF0EE2B
:10333000608AB0EE419AF0EE619AF0EE693AB0EE32
:10334000493AF0EE682AB0EE482ADFED0C1A9FEDFC
:103350000C1ADFED0C0A9FED0C0A02F0D3FC4FF4BF
:10336000FA7005F057FC0121084605F085F84FF486
:103370007A7005F04FFCBDEC048B10BD7BF48443E8
:103380008FC2364200009B42BE9FF94110B52DED21
:10339000048BB0EE408AF0EE608AB0EE419AF0EE17
:1033A000619AF0EE693AB0EE493AF0EE682AB0EE72
:1033B000482ADFED061A9FED061ADFED060A9FED9B
:1033C000060A02F09FFCBDEC048B10BDACAC894337
:1033D000F2D26442E3A5A242BE9FF94110B52DEDA1
:1033E000048BB0EE408AF0EE608AB0EE419AF0EEC7
:1033F000619AF0EE693AB0EE493AF0EE682AB0EE22
:10340000482ADFED0C1A9FED0C1ADFED0C0A9FED38
:103410000C0A02F077FC4FF4FA6005F0FBFB012187
:10342000084605F029F84FF47A7005F0F3FBBDEC7F
:10343000048B10BDE9C60343D5D8634396430942C4
:103440002B47094300BFFEE7224890ED000A2248BF
:1034500080ED000A214890ED000A1F48D0ED000AD7
:1034600020EE200AD0ED000A1D4890ED001A70EE03
:10347000C10A1C4890ED001A01EE200A1A48D0ED4E
:10348000000A30EE200A80ED000A134890ED000A91
:10349000134880ED000A144890ED000AF3EE020A8A
:1034A000B4EEE00AF1EE10FA04DDB3EE020A80EDAC
:1034B000000A0DE00C4890ED000AFBEE020AB4EEA3
:1034C000E00AF1EE10FA03D2BBEE020A80ED000A28
:1034D0007047000070010020D8000020CC000020C0
:1034E000DC000020D0000020D4000020244890ED13
:1034F000000ADFED240A30EE600A234880ED000A5E
:10350000224890ED000A2048D0ED000A20EE200A63
:10351000D0ED000A1E4890ED001A70EEC10A1D4859
:1035200090ED001A01EE200A1B48D0ED000A30EEA3
:10353000200A80ED000A144890ED000A144880ED3E
:10354000000A154890ED000AF3EE020AB4EEE00A14
:10355000F1EE10FA04DDB3EE020A80ED000A0DE090
:103560000D4890ED000AFBEE020AB4EEE00AF1EE1F
:1035700010FA03D2BBEE020A80ED000A7047000089
:10358000700100200000B442D8000020CC000020D0
:10359000DC000020D0000020D40000202D4890ED59
:1035A000000AB5EEC00AF1EE10FA09DB90ED000A50
:1035B000DFED290A30EE600A284880ED000A09E0B4
:1035C000244890ED000ADFED240A30EE200A23485B
:1035D00080ED000A224890ED000A2048D0ED000A54
:1035E00020EE200AD0ED000A1E4890ED001A70EE81
:1035F000C10A1D4890ED001A01EE200A1B48D0EDCB
:10360000000A30EE200A80ED000A144890ED000A0E
:10361000144880ED000A154890ED000AF3EE020A06
:10362000B4EEE00AF1EE10FA04DDB3EE020A80ED2A
:10363000000A0DE00D4890ED000AFBEE020AB4EE20
:10364000E00AF1EE10FA03D2BBEE020A80ED000AA6
:10365000704700007001002000003443D8000020B3
:10366000CC000020DC000020D0000020D40000208E
:1036700010B5DFED0F3A9FED0E3ADFED0D2A9FED0D
:103680000C2ADFED0C1A9FED0C1ADFED0C0A9FEDF2
:103690000C0A02F037FB4FF4FA7005F0BBFA012177
:1036A000022004F0E9FE4FF47A7005F0B3FA10BD81
:1036B0000000B443CBA1DD428FC27143D9CE834217
:1036C00014AEBC429FED070A074880ED000A9FED4B
:1036D000050A064880ED000A9FED020A044880EDC5
:1036E000000A704700000000D4000020D80000202D
:1036F000DC00002010B52DED028B82B00446B0EE48
:10370000408AF0EE608A9FED2A0A28EE000A10EE49
:10371000101A0846FCF7D6FD264A03C29FED260A7A
:1037200028EE800ABCEEC00A244880ED000A214839
:103730000078234908701F48407848701D488078F9
:1037400088701C48C078C8701A48007908711948F8
:10375000407948711748807988711648C079C871D6
:1037600016480078087215484078487213488078E7
:1037700088721248C078C87208460C232246A421D9
:103780000090104803F0C4FF0F4802780D490F481D
:1037900000F07AF912200E490870601E0D4901EB05
:1037A000800080ED008A02B0BDEC028B10BD0000ED
:1037B00000007A44400100200000C8424801002077
:1037C0005C2F0120B431012058010020A064024088
:1037D000590100209001002010B5042002F0D0FA19
:1037E0000E4800680E49B0FBF1F00E4908700B4816
:1037F00000680B49B0FBF1F44FF47A7044434FF08A
:10380000E020006940F002004FF0E0210861084626
:103810004461006940F00100086110BD14000020FF
:1038200040420F00A90100200246094B9A4201D2F2
:10383000084801E00648103801F000531BB1064B60
:103840000B40C36002E0044B0B40836070470000F4
:1038500010640240006002407D0F7D0F21B10268BC
:1038600042F00102026003E0026822F001020260FD
:1038700070470000016821F0010101600021016032
:1038800041608160C1600161212141614A498842F2
:1038900004D13D21484A103A91608CE046491831E4
:1038A000884205D14FF47461434A103A916082E036
:1038B00041493031884205D14FF474113E4A103AE3
:1038C000916078E03C494831884205D14FF07461FD
:1038D000394A103A91606EE037496031884204D12C
:1038E0003649354A103AD16065E03349783188422B
:1038F00004D13349304A103AD1605CE02E4990310E
:10390000884204D12F492C4A103AD16053E02A4909
:10391000A831884205D14FF03D51274A103AD16075
:1039200049E02949884204D13D21274A083A1160DB
:1039300041E025491831884205D14FF47461224A8B
:10394000083A116037E020493031884205D14FF400
:1039500074111D4A083A11602DE01B494831884214
:1039600005D14FF07461184A083A116023E01649F6
:103970006031884204D11149134A121F11601AE0C4
:1039800011497831884204D10D490F4A121F116044
:1039900011E00D499031884204D10A490A4A121FA8
:1039A000116008E00849A831884204D14FF03D5128
:1039B000054A121F11607047106002403D00002050
:1039C000400F002000003D2010640240014600200E
:1039D0000A6802F001020AB1012000E000207047ED
:1039E0000146486880B2704730B503460A46002059
:1039F00000240B4DAB4201D20A4901E008491039BD
:103A000002F000550DB14C6800E00C68064D2C40EA
:103A100004EA02050DB1012000E0002030BD0000E5
:103A200010640240006002407D0F7D0F10B500223F
:103A30000268134B1A40CC680B6823434C6923433C
:103A40008C692343CC6923430C6A23434C6A234388
:103A50008C6A23434C6B23438C6B23431A430260D1
:103A6000426922F00702D1E90B3423431A43426131
:103A70000B6943604B6883608B68C36010BD0000B6
:103A80003F801CF04160704770B505460E461446F5
:103A9000224631461148FCF7F1FB00212846FFF78A
:103AA000DDFE00BF2846FFF791FF0028FAD121462E
:103AB0002846FFF7E7FF01212846FFF7CFFE09E080
:103AC00007490848FFF790FF20B105490548FFF76F
:103AD000ABFE00E0F4E700BF70BD0000B431012090
:103AE00000002020A0640240424908704249097841
:103AF000052979D2DFE801F00311263D4B003D494D
:103B000009780D2905D13C490978491C3A4A1170B8
:103B100002E00021384A11706AE0364909780A2922
:103B200008D10021354A117033490978491C324ABD
:103B3000117006E02F4909780D2902D000212E4A84
:103B4000117055E02B4909782D4A2C4B1B78D15424
:103B50002A490978491C294A1170114609781829FF
:103B600006DB0021117024490978491C224A117092
:103B70003EE0204909780A2905D11F490978491CE6
:103B80001D4A117002E000211B4A117030E01949F2
:103B900009780D2923D11A4991ED000A194981EDBF
:103BA000000A174991ED010A174981ED000A1449ED
:103BB00091ED020A154981ED000A114991ED030AC0
:103BC000134981ED000A0E4991ED040A114981ED76
:103BD000000A0B4991ED050A0F4981ED000A002109
:103BE000054A117004E0FFE70021034A117000BF8D
:103BF00000BF704780010020810100208201002069
:103C0000443301207001002074010020780100205D
:103C1000680100206C0100207C010020704700003A
:103C200070B5034600224FF0E02675690D4E3678D8
:103C300003FB06F44FF0E026B16910E04FF0E026F8
:103C4000B06988420BD0884202D20E1A324402E098
:103C50002E1A0E4432440146A24200D300E0EDE7A2
:103C600000BF70BDA90100204FF08040406A80B2C3
:103C70007047000000B589B00121084601F0B8F88E
:103C80000121022001F0B4F80121084601F0C0F83A
:103C900001220F21294800F021FB0122032128489D
:103CA00000F01CFB4FF40040079002208DF820002C
:103CB00003208DF8210000208DF8220001208DF8CE
:103CC000230007A91D4800F0C1FA0820079007A9A2
:103CD0001B4800F0BBFA4FF0804002F03BFA04A80A
:103CE00002F02EFD0020ADF810004FF6FF70059099
:103CF0000020ADF81800ADF8120004A94FF0804084
:103D000002F0DCFC00231A4603214FF0804002F051
:103D1000E9FA01A802F03EFB0620ADF80C0001A96B
:103D20004FF0804002F0FFFA00204FF080414862DF
:103D30000121880702F0F2F909B000BD000002403D
:103D4000000402404FF0804148627047014800681B
:103D500080B270472404004000B589B001210220E0
:103D600001F046F80121022001F052F8022205215B
:103D7000244800F0B3FA02220421224800F0AEFAEF
:103D80003020079002208DF8200003208DF82100BC
:103D900000208DF8220001208DF8230007A9194882
:103DA00000F054FA184802F0D5F904A802F0C8FC53
:103DB0000020ADF810004FF6FF7005900020ADF820
:103DC0001800ADF8120004A90F4802F077FC002398
:103DD0001A4603210C4802F085FA01A802F0DAFA2B
:103DE0000620ADF80C0001A9074802F09CFA00205B
:103DF0000549243108600121034802F08FF909B018
:103E000000BD0000000402400004004001490860B9
:103E100070470000240400400148006880B27047E9
:103E2000240C004000B589B00121084600F0E0FFF5
:103E30000121082000F0ECFF02220121244800F0BB
:103E40004DFA02220021224800F048FA0320079090
:103E500002208DF8200003208DF8210000208DF82D
:103E6000220001208DF8230007A9194800F0EEF97F
:103E7000184802F06FF904A802F062FC0020ADF8C7
:103E800010004FF6FF7005900020ADF81800ADF857
:103E9000120004A90F4802F011FC00231A46032166
:103EA0000C4802F01FFA01A802F074FA0620ADF8DF
:103EB0000C0001A9074802F036FA00200549243118
:103EC00008600121034802F029F909B000BD000093
:103ED00000000240000C00400149086070470000EB
:103EE000240C00400148006880B27047240800405C
:103EF00000B589B00121082000F07AFF01210420DB
:103F000000F086FF02220C21244800F0E7F902228B
:103F10000D21224800F0E2F94FF4405007900220B2
:103F20008DF8200003208DF8210000208DF822005C
:103F300001208DF8230007A9184800F087F91848D8
:103F400002F008F904A802F0FBFB0020ADF8100015
:103F50004FF6FF7005900020ADF81800ADF8120084
:103F600004A90F4802F0AAFB00231A4603210C48BB
:103F700002F0B8F901A802F00DFA0620ADF80C0025
:103F800001A9074802F0CFF9002005492431086053
:103F90000121034802F0C2F809B000BD000C024044
:103FA00000080040014908607047000024080040F4
:103FB00010B5402000F0F4F870B172480068401C61
:103FC0007049086008460068042801DD0120086087
:103FD000402000F0DFF8D4E0802000F0E1F8002875
:103FE00064D068480068012806D0022819D0032848
:103FF0002CD0042854D13EE0634890ED000A634879
:10400000D0ED000A30EE200A5F4880ED000AD0EDC6
:10401000000AB0EE600ADFED5E0A0120FFF76AFBDE
:104020003FE0594890ED010A5848D0ED000A30EEC3
:10403000200A554880ED010AD0ED010AB0EE600A71
:10404000DFED530A0220FFF755FB2AE04E4890EDC2
:10405000020A4E48D0ED000A30EE200A4A4880EDB0
:10406000020AD0ED020AB0EE600ADFED490A032031
:10407000FFF740FB15E0444890ED030A4348D0EDBC
:10408000000A30EE200A404880ED030AD0ED030A12
:10409000B0EE600ADFED3E0A0420FFF72BFB00E0E4
:1040A00000BF00BF802000F075F86AE04FF4807018
:1040B00000F076F8002864D032480068012806D065
:1040C000022819D003282CD0042854D13EE02E48D1
:1040D00090ED000A2D48D0ED000A30EE600A2A4823
:1040E00080ED000AD0ED000AB0EE600ADFED280A8C
:1040F0000120FFF7FFFA3FE0234890ED010A234833
:10410000D0ED000A30EE600A1F4880ED010AD0EDC4
:10411000010AB0EE600ADFED1E0A0220FFF7EAFA9C
:104120002AE0194890ED020A1848D0ED000A30EE56
:10413000600A154880ED020AD0ED020AB0EE600A6E
:10414000DFED130A0320FFF7D5FA15E00E4890EDD6
:10415000030A0E48D0ED000A30EE600A0A4880EDEE
:10416000030AD0ED030AB0EE600ADFED090A04206D
:10417000FFF7C0FA00E000BF00BF4FF4807000F00E
:1041800009F810BDA0010020900100208C01002042
:104190000000B4430149086070470000143C01402E
:1041A00001460020034A12680A400AB1012000E0DB
:1041B00000207047143C0140002123498279002AE5
:1041C0003AD00A46126803689A430B461A600A1DE1
:1041D000126803689A430B1D1A60027911440A6839
:1041E00003681A430A60184A0832126803689A433F
:1041F000154B08331A601A1D126803689A43124B54
:104200000C331A604279102A0ED11A1F1268036803
:104210001A430D4B08331A601A1D126803681A43BB
:10422000094B0C331A600DE00749427911440A68C2
:1042300003681A430A6005E0027911440A680368BA
:104240009A430A6070470000003C0140F0B50A46FE
:1042500000210023002400BF3DE0012505FA01F301
:10426000156805EA03049C4234D105684F00032613
:10427000BE40B543056015794E00B540066835432C
:1042800005601579012D02D01579022D16D18568AA
:104290004F000326BE40B543856055794E00B540BA
:1042A000866835438560456801268E40B543456084
:1042B000456896798E40B6B235434560C5684F0073
:1042C0000326BE40B543C560D5794E00B540C668EB
:1042D0003543C560491C1029BFD3F0BDF0B500239C
:1042E00000244D07ED0E02FA05F3CE1000F1200573
:1042F00055F826504E07F70E0F26BE40B543CF1097
:1043000000F1200646F82750CE1000F1200555F8A0
:10431000265045EA0304CE1000F1200545F826405A
:10432000F0BD000010B52DED048BB0EE408AF0EE2C
:10433000608AB0EE419AF0EE619AF0EE693AB0EE22
:10434000493AF0EE682AB0EE482ADFED0C1A9FEDEC
:104350000C1ADFED0C0A9FED0C0A01F0D3FC4FF4B0
:10436000FA7004F057FC0121022004F085F84FF4A4
:104370007A7004F04FFCBDEC048B10BD000082434A
:104380001F852A42B89E9D422BC7924210B52DED43
:10439000048BB0EE408AF0EE608AB0EE419AF0EE07
:1043A000619ADFED1B3A9FED1A3ADFED192A9FED76
:1043B000182ADFED181A9FED181ADFED180A9FED85
:1043C000180A01F09FFC4FF47A7004F023FCF0EE21
:1043D000693AB0EE493AF0EE682AB0EE482ADFEDCD
:1043E000111A9FED111ADFED110A9FED110A01F06C
:1043F00089FC4FF4FA7004F00DFC0121022004F056
:104400003BF84FF47A7004F005FCBDEC048B10BD52
:1044100000003444D90EE342442B6E43912D824276
:1044200091ADBC4287560B436DE771433B5F23421E
:104430000080B84210B52DED048BB0EE408AF0EE4E
:10444000608AB0EE419AF0EE619AF0EE693AB0EE11
:10445000493AF0EE682AB0EE482ADFED0C1A9FEDDB
:104460000C1ADFED0C0A9FED0C0A01F04BFC4FF427
:10447000FA7004F0CFFB0121084603F0FDFF4FF472
:104480007A7004F0C7FBBDEC048B10BDCFB784433A
:10449000D7A339422F1D9B4268D18D4210B52DED17
:1044A000048BB0EE408AF0EE608AB0EE419AF0EEF6
:1044B000619AF0EE693AB0EE493AF0EE682AB0EE51
:1044C000482ADFED061A9FED061ADFED060A9FED7A
:1044D000060A01F017FCBDEC048B10BD6A0C874383
:1044E000FED44B4296439942D7638E4210B52DEDD0
:1044F000048BB0EE408AF0EE608AB0EE419AF0EEA6
:10450000619AF0EE693AB0EE493AF0EE682AB0EE00
:10451000482ADFED0C1A9FED0C1ADFED0C0A9FED17
:104520000C0A01F0EFFB4FF4FA6004F073FB012179
:10453000084603F0A1FF4FF47A7004F06BFBBDEC6A
:10454000048B10BD87560B436DE771433B5F2342DD
:104550000080B84200BFFEE708B500F0D7FAFFF7C9
:1045600089FBFFF7F9FBFFF75DFCFFF7C1FC4FF498
:10457000E13003F0B9FF4FF4E13004F02DF84FF4CF
:10458000E13004F081F84FF4165004F0F9F84FF4DC
:10459000E13004F04DF900F0A7F90A4800F0D4FA30
:1045A000094800F01DFBC820084B094A4FF0206164
:1045B00000900448183000F05FFB43F6982003F0A9
:1045C000DBF808BD8864024028600240B431012055
:1045D000041401402DED088B88B07AE04FF47A7016
:1045E00004F018FB3B480068FBF782FE41EC180B17
:1045F00039480068FBF77CFE41EC190B374800682E
:10460000FBF776FE41EC1A0B8DED028B8DED009BD6
:1046100053EC1A2B32A002F04DFA3C4890ED000BFF
:104620008DED040B3A4890ED000B8DED020B3948EF
:1046300090ED000B8DED000B374890ED001BB0EEB8
:10464000410AF0EE610A53EC102B34A002F032FA6A
:10465000414890ED030A10EE101A0846FBF748FE99
:1046600041EC180B3C4890ED020A10EE101A084677
:10467000FBF73EFE41EC190B374890ED010A10EEB6
:10468000101A0846FBF734FE41EC1A0B324890ED45
:10469000000A10EE101A0846FBF72AFE41EC1B0B2D
:1046A0002E48006806908DED048B8DED029B8DEDFC
:1046B00000AB53EC1B2B2AA002F0FCF9384803682E
:1046C00038483949026839A002F0F4F921A002F013
:1046D000F1F983E7700100206C01002068010020DF
:1046E000706F735F78203D202566202020706F73E7
:1046F0005F79203D2025662020207A616E676C65F9
:10470000203D202566200D0A00000000E001002069
:10471000D0010020C0010020B0010020415F737073
:10472000656564203D202566202020425F7370650A
:104730006564203D202566202020435F73706565F9
:1047400064203D2025662020445F737065656420E9
:104750003D2025660D0A000090010020A0010020E8
:10476000416E676C6531203D202566202C20416E0E
:10477000676C6532203D202566202C416E676C6594
:1047800033203D202566202C416E676C6534203D2A
:10479000202566202C4964203D202564200D0A0038
:1047A000600100205C01002064010020636F6D6DDA
:1047B000616E64203D2025732C2064656C74615803
:1047C000203D202564202C2064656C746159203DB7
:1047D000202564200D0A00002DE9F04106ACF0CC44
:1047E0009FED300ADFF8C0C08CED000A9FED2D0A66
:1047F000DFF8B8C08CED000A9FED2A0ADFF8B0C0E0
:104800008CED000A9FED270ADFF8A8C08CED000AA6
:104810009FED240ADFF8A0C08CED000A9FED210A6D
:10482000DFF898C08CED000A9FED1E0ADFF890C0FB
:104830008CED000A9FED1B0ADFF888C08CED000AA2
:104840000FFA80FCDFF88080A8F800C00FFA81FC26
:10485000DFF87880A8F800C00FFA82FCDFF87080DB
:10486000A8F800C00FFA83FCDFF86880A8F800C041
:104870000FFA84FCDFF86080A8F800C00FFA85FC0E
:10488000DFF85880A8F800C00FFA86FCDFF85080E7
:10489000A8F800C00FFA87FCDFF84880A8F800C02D
:1048A000BDE8F08100000000E8000020EC000020DE
:1048B000F0000020F4000020F8000020FC000020A0
:1048C0000001002004010020BC000020BE000020E8
:1048D000C0000020C2000020C4000020C60000204C
:1048E000C8000020CA00002010B502F061FF02F0ED
:1048F0009DFF02F0D9FF10BD10B5DFED093A9FED25
:10490000093ADFED092A9FED082ADFED081A9FED2D
:10491000081ADFED080A9FED080A01F0F3F910BD4F
:104920000080BB4400009644000034445C0FC44245
:10493000852B6443142E8F4214AEBC4270B50446DE
:10494000002C08DD00201249086001201149C1F83F
:10495000AC02254611E0002C08DA01200C49086061
:1049600000200C49C1F8AC02654206E0012008496C
:1049700008600849C1F8AC020025B5F5FA6F01DB03
:1049800040F2CF752946044801F063FE70BD000077
:10499000B0824242008042420000014070B50446AD
:1049A000002C08DD01201249086000201149C1F8DF
:1049B000B402254611E0002C08DA00200C490860FA
:1049C00001200C49C1F8B402654206E00120084903
:1049D00008600849C1F8B4020025B5F5FA6F01DB9B
:1049E00040F2CF752946044801F035FE70BD000045
:1049F000B8824242008042420000014070B5044645
:104A0000002C08DD01201249086000201149C1F87E
:104A1000BC02254611E0002C08DA00200C49086091
:104A200001200C49C1F8BC02654206E0012008499A
:104A300008600849C1F8BC020025B5F5FA6F01DB32
:104A400040F2CF752946044801F007FE70BD000012
:104A500088024342008042420000014070B5044693
:104A6000002C08DD00201249086001201149C1F81E
:104A70009002254611E0002C08DA01200C4908605C
:104A800000200C49C1F89002654206E00120084967
:104A900008600849C1F890020025B5F5FA6F01DBFE
:104AA00040F2CF752946044801F0D9FD70BD0000E1
:104AB0008C02434200004342000001401CB501212A
:104AC000202000F095F90121402000F091F901200B
:104AD0008DF8040000208DF8060003208DF80500F5
:104AE00001208DF807004FF4784000906946054892
:104AF000FFF7ACFB1C20009069460348FFF7A6FBBC
:104B00001CBD0000001402400018024010B5FFF761
:104B1000D5FF00F00FF810BD10B50020FFF70EFF15
:104B20000020FFF73BFF0020FFF768FF0020FFF7A2
:104B300095FF10BD10B501F065FA042140F2CF7069
:104B400001F000FA10BD000010B590B004462148F5
:104B5000844204D90121880500F04AF903E00121CB
:104B6000480500F045F92046FEF784FE00BF2046C8
:104B7000FEF72CFF0028FAD116488830FEF77AFE9F
:104B80004FF00060019014480290144803900020F8
:104B90000490C8200590002006904FF48060079094
:104BA0000020089009900A904FF440300B900020AC
:104BB0000C9003200D9000200E900F9001A9054845
:104BC0008830FEF733FF012102488830FEF746FEA9
:104BD00010B010BD006402400410014024300120D8
:104BE00010B590B004462048844204D901218805BC
:104BF00000F0FEF803E00121480500F0F9F8204636
:104C0000FEF738FE00BF2046FEF7E0FE0028FAD18E
:104C10001648FEF72FFE4FF00060019014480290F6
:104C20001448039000200490C820059000200690AE
:104C30004FF4806007900020089009900A904FF48C
:104C400040300B9000200C9003200D9000200E901F
:104C50000F9001A90548FEF7E9FE01210348FEF780
:104C6000FDFD10B010BD000000640240286002404D
:104C700004480040EC3001202DE9F04190B004469A
:104C80000D4617461E46DDF858803148844204D947
:104C90000121880500F0ACF803E00121480500F08F
:104CA000A7F82046FEF7E6FD00BF2046FEF78EFE81
:104CB0000028FAD101950297039640200490CDF880
:104CC0001480002006904FF4806007900020089028
:104CD00009900A904FF480300B9000200C90032034
:104CE0000D9000200E900F9001A92046FEF79EFE29
:104CF00017482830FEF7BEFD4FF0206001901548A0
:104D000002901548039000200490C82005900020D0
:104D100006904FF4806007900020089009900A9058
:104D20004FF440300B9000200C9003200D90002099
:104D30000E900F9001A906482830FEF777FE01215A
:104D400003482830FEF78AFD10B0BDE8F08100006E
:104D500000640240041401407C32012000BFFEE7E1
:104D60007047000070B5002100230F22C4781CB3E7
:104D7000174C246804F4E064C4F5E064C4F307212C
:104D8000C1F10404E3B20A4144789C40E1B2847862
:104D9000144021430C07210E0E4C05786155047810
:104DA00004F01F050124AC4005786D11AD0005F13C
:104DB000E025C5F8004109E0047804F01F0501244E
:104DC000AC40054D0678761145F8264070BD0000D0
:104DD0000CED00E000E400E080E100E00249014366
:104DE000024A1160704700000000FA050CED00E077
:104DF00029B1064A12680243044B1A6004E0034AD0
:104E000012688243014B1A6070470000303802403C
:104E100029B1064A12680243044B1A6004E0034AAF
:104E200012688243014B1A6070470000403802400C
:104E300029B1064A12680243044B1A6004E0034A8F
:104E400012688243014B1A6070470000203802400C
:104E500029B1064A12680243044B1A6004E0034A6F
:104E600012688243014B1A607047000044380240C8
:104E700029B1064A12680243044B1A6004E0034A4F
:104E800012688243014B1A607047000024380240C8
:104E9000F0B5002100220024022500260223324F13
:104EA0003F6807F00C0121B1042905D0082937D14A
:104EB00005E02E4F076036E02D4F076033E02A4FA4
:104EC0003F1F3F68C7F38056274F3F1F3F6807F0DB
:104ED0003F036EB1264FB7FBF3F7DFF88CC0ACF1A0
:104EE000040CDCF800C0CCF3881C07FB0CF40CE0CD
:104EF0001E4FB7FBF3F7DFF870C0ACF1040CDCF821
:104F000000C0CCF3881C07FB0CF4174F3F1F3F6811
:104F1000C7F301477F1C7D00B4FBF5F7076002E093
:104F2000124F076000BF00BF0F4F3F6807F0F0014E
:104F30000909104F7A5C0768D74047600A4F3F68FD
:104F400007F4E051890A0B4F7A5C4768D7408760C5
:104F5000054F3F6807F46041490B064F7A5C47688C
:104F6000D740C760F0BD0000083802400024F400BC
:104F700000127A003800002010B5FEF775FE00B26E
:104F800000EE100AB8EEC00ADFED260A20EE200A75
:104F900010EE104A2046FBF7ABF9234A03C200206B
:104FA000FEF7D0FEFEF7D2FE00B200EE100AB8EE19
:104FB000C00ADFED1C0A20EE200A10EE104A20463F
:104FC000FBF796F9194A03C20020FEF71FFFFEF710
:104FD00023FF00B200EE100AB8EEC00ADFED110A9E
:104FE00020EE200A10EE104A2046FBF781F9104A05
:104FF00003C20020FEF770FFFEF774FF00B200EE60
:10500000100AB8EEC00ADFED070A20EE200A10EE03
:10501000104A2046FBF76CF9064A03C20020FEF74F
:10502000C1FF10BDA69B923BB0010020C001002033
:10503000D0010020E001002010B52DED048BB0EE72
:10504000408AF0EE608AB0EE419AF0EE619AF0EE9E
:10505000693AB0EE493AF0EE682AB0EE482ADFED40
:105060000C1A9FED0C1ADFED0C0A9FED0C0A00F0F4
:1050700049FE4FF4FA7003F0CDFD0121022003F048
:10508000FBF94FF47A7003F0C5FDBDEC048B10BD45
:10509000D33D83437B14284252389B421D9AD94208
:1050A00010B52DED048BB0EE408AF0EE608AB0EEC4
:1050B000419AF0EE619ADFED1B3A9FED1A3ADFED6F
:1050C000192A9FED182ADFED181A9FED181ADFED47
:1050D000180A9FED180A00F015FE4FF47A7003F0DD
:1050E00099FDF0EE693AB0EE493AF0EE682AB0EE7A
:1050F000482ADFED111A9FED111ADFED110A9FED1D
:10510000110A00F0FFFD4FF4FA7003F083FD012156
:10511000022003F0B1F94FF47A7003F07BFDBDEC8F
:10512000048B10BD00003444D90EB14244AB294376
:1051300046B6CC41235B6142AE07CC4221302743C7
:105140001058AD4048E15F4210B52DED048BB0EE34
:10515000408AF0EE608AB0EE419AF0EE619AF0EE8D
:10516000693AB0EE493AF0EE682AB0EE482ADFED2F
:105170000C1A9FED0C1ADFED0C0A9FED0C0A00F0E3
:10518000C1FD4FF4FA7003F045FD0121084603F01C
:1051900073F94FF47A7003F03DFDBDEC048B10BD44
:1051A0003F058643C14A3A422B479B421D9ADB4248
:1051B00010B52DED048BB0EE408AF0EE608AB0EEB3
:1051C000419AF0EE619AF0EE693AB0EE493AF0EEAB
:1051D000682AB0EE482ADFED061A9FED061ADFEDC9
:1051E000060A9FED060A00F08DFDBDEC048B10BD94
:1051F0003F058C43C14A6C422B47A042DF4FDB4244
:1052000010B52DED048BB0EE408AF0EE608AB0EE62
:10521000419AF0EE619AF0EE693AB0EE493AF0EE5A
:10522000682AB0EE482ADFED0C1A9FED0C1ADFED6C
:105230000C0A9FED0C0A00F065FD4FF4FA6003F0D4
:10524000E9FC0121084603F017F94FF47A7003F0E6
:10525000E1FCBDEC048B10BDAE07CC4221302743EE
:105260001058AD4048E15F421FB578201621CDE9C6
:10527000001003460A46CDE9021001461620FFF74A
:10528000ABFAFEF71FFA4FF4967003F025F94FF4CE
:105290007A7003F0BFFCFFF72FFB1DE00A2003F03C
:1052A000B9FCFFF769FEB2EE0E0A00F03BFCB2EE6D
:1052B0000E0A00F07FFC0020FFF770FB0020FFF7D4
:1052C000CDFBFE4890ED000ADFEDFD0AB4EEE00AEA
:1052D000F1EE10FA00DB00E0E0E700BF9FEDF92AF5
:1052E000DFEDF91AC8229FEDF91ADFEDF80AB2EEE8
:1052F0000E0A00210320FBF7AFFD16E0322003F079
:1053000089FCF348007872280FD1F148407877285B
:105310000BD1EF488078772807D1ED48C078632813
:1053200003D13020EA49087000E0E7E700BF9FEDB5
:10533000E42ADFEDE81A4FF496729FEDE41ADFEDF0
:10534000E60AB3EE040A01210320FBF785FDE3A082
:1053500001F058FD16E0322003F05CFCDC480078D8
:1053600072280FD1DA48407877280BD1D848807856
:10537000772807D1D648C078632803D13020D44994
:10538000087000E0E7E700BF9FEDD62ADFEDCD1AF9
:1053900032229FEDD51ADFEDD40AB2EE040A0021C5
:1053A0000846FBF759FD9FEDC72ADFEDD01AC8224A
:1053B0009FEDC61ADFEDC50AB2EE0E0A00210320EA
:1053C000FBF74AFDFBF71EFD0220C94908609FED6F
:1053D000C92ADFEDC91A4FF496729FEDBC1ADFEDB2
:1053E000BE0AB3EE040A01210020FCF745F9322081
:1053F00003F010FCB9A001F005FD16E0322003F027
:1054000009FCB348007872280FD1B148407877285A
:105410000BD1AF488078772807D1AD48C078632892
:1054200003D13020AA49087000E0E7E700BF7820E8
:105430001621CDE9001003460A46CDE902100146C7
:105440001620FFF7C9F99FEDAD2ADFED9E1A4FF444
:1054500096729FED9E1ADFEDA00AB3EE040A0021BA
:105460000846FCF709F9FBF7A3FC0320A0490860F4
:105470009FEDA32ADFEDA31A4FF496729FED931AC6
:10548000DFED950AB3EE040A01210220FCF704FDCA
:10549000322003F0BFFB16E0322003F0BBFB8C4848
:1054A000007872280FD18A48407877280BD1884835
:1054B0008078772807D18648C078632803D13020C8
:1054C0008349087000E0E7E700BF9FED7E2ADFED2B
:1054D0008E1A4FF496729FED7D1ADFED7F0AB3EEC0
:1054E000040A00210320FCF7D7FC01F033F9022065
:1054F0007F4908609FED852ADFED721A4FF496729E
:105500009FED721ADFED740AB3EE040A0021012048
:10551000FCF7B2F801F05CF90120754908609FEDD5
:105520007C2ADFED7C1AC8229FED681ADFED670A3E
:10553000B2EE0E0A01210220FBF78EFC322003F0AE
:1055400069FB16E0322003F065FB614800787228A1
:105550000FD15F48407877280BD15D488078772855
:1055600007D15B48C078632803D1302058490870C0
:1055700000E0E7E700BF9FED532ADFED671AC8227E
:105580009FED521ADFED510AB2EE0E0A0021032000
:10559000FBF762FCFBF736FC0220554908609FEDE3
:1055A0005F2ADFED591A4FF496729FED481ADFED2E
:1055B0004A0AB3EE040A01210020FCF75DF832200C
:1055C00003F028FB16E0322003F024FB404800786B
:1055D00072280FD13E48407877280BD13C4880781C
:1055E000772807D13A48C078632803D1302038495A
:1055F000087000E0E7E700BF9FED402ADFED311AB9
:105600004FF496729FED311ADFED330AB3EE040AC0
:1056100000210846FCF730F8FBF7CAFB03203449A9
:1056200008609FED3F2ADFED3F1A4FF496729FED21
:10563000271ADFED290AB3EE040A01210220FCF744
:105640002BFC322003F0E6FA16E0322003F0E2FAF7
:105650001F48007872280FD11D48407877280BD159
:105660001B488078772807D11948C078632803D170
:1056700030201749087000E0E7E700BF9FED112ACE
:10568000DFED151A4FF496729FED101ADFED120A36
:10569000B3EE040A00210220FCF7FEFBB3EE092A58
:1056A000F1EE041A4FF496729FED081ADFED0A0A24
:1056B000B3EE040A0121084636E000006C01002028
:1056C0000000024300000000008022440000A042CD
:1056D0006401002000A0B9440000C84277616974E9
:1056E0000000000000002543000020420000E644C6
:1056F0002800002000E0834400C0E94400C0D044FA
:105700000020DA440040834400C0E44400003443F5
:1057100000002A430040B5440040E7440080844430
:105720000080D44400608144FCF7B6FB02E03220E4
:1057300003F070FAFBE7000030EE601A254880EDB8
:10574000001A2548B0F9000001EE100AB8EEC11A9F
:105750002048D0ED001A21EE211AD0ED001A1F4882
:1057600090ED002A31EEC22A1D48B0F9000001EE8A
:10577000900AF8EEE11A01EE821A1A48B0F9000018
:1057800001EE900AF8EEE11A31EE211ABDEEC11ACF
:1057900011EE100A00B2134908800E4890ED001A6D
:1057A0000E4880ED001A0846B0F90000B0F5FA6F17
:1057B00002DB40F2CF7008800A48B0F9000010F513
:1057C000FA6F03DC4FF63100064908800548B0F94E
:1057D00000007047E8000020BC000020EC00002022
:1057E000BE000020E000002030EE601A254880ED69
:1057F000001A2548B0F9000001EE100AB8EEC11AEF
:105800002048D0ED001A21EE211AD0ED001A1F48D1
:1058100090ED002A31EEC22A1D48B0F9000001EED9
:10582000900AF8EEE11A01EE821A1A48B0F9000067
:1058300001EE900AF8EEE11A31EE211ABDEEC11A1E
:1058400011EE100A00B2134908800E4890ED001ABC
:105850000E4880ED001A0846B0F90000B0F5FA6F66
:1058600002DB40F2CF7008800A48B0F9000010F562
:10587000FA6F03DC4FF63100064908800548B0F99D
:1058800000007047F0000020C0000020F40000205D
:10589000C2000020E200002030EE601A254880EDB2
:1058A000001A2548B0F9000001EE100AB8EEC11A3E
:1058B0002048D0ED001A21EE211AD0ED001A1F4821
:1058C00090ED002A31EEC22A1D48B0F9000001EE29
:1058D000900AF8EEE11A01EE821A1A48B0F90000B7
:1058E00001EE900AF8EEE11A31EE211ABDEEC11A6E
:1058F00011EE100A00B2134908800E4890ED001A0C
:105900000E4880ED001A0846B0F90000B0F5FA6FB5
:1059100002DB40F2CF7008800A48B0F9000010F5B1
:10592000FA6F03DC4FF63100064908800548B0F9EC
:1059300000007047F8000020C4000020FC00002098
:10594000C6000020E400002030EE601A254880EDFB
:10595000001A2548B0F9000001EE100AB8EEC11A8D
:105960002048D0ED001A21EE211AD0ED001A1F4870
:1059700090ED002A31EEC22A1D48B0F9000001EE78
:10598000900AF8EEE11A01EE821A1A48B0F9000006
:1059900001EE900AF8EEE11A31EE211ABDEEC11ABD
:1059A00011EE100A00B2134908800E4890ED001A5B
:1059B0000E4880ED001A0846B0F90000B0F5FA6F05
:1059C00002DB40F2CF7008800A48B0F9000010F501
:1059D000FA6F03DC4FF63100064908800548B0F93C
:1059E0000000704700010020C800002004010020D2
:1059F000CA000020E600002030B500228B071C0FF3
:105A00000F2303FA04F20B4B8C1053F8243093430A
:105A1000084C8D1044F8253023468C1053F8243060
:105A20008C07240F00FA04F42343024C8D1044F831
:105A3000253030BD083801400CB5002001900090A1
:105A40003448006840F480303249086000BF314873
:105A5000006800F4003000900198401C019000980C
:105A600018B90198B0F5A04FF1D12A48006800F4A8
:105A7000003010B10120009001E00020009000985B
:105A8000012846D123484030006840F08050214929
:105A9000403108602048006840F440401E490860DA
:105AA0001C48083000681B49083108600846006837
:105AB00040F4004008600846006840F4A0500860C8
:105AC0001648091F0860081F006840F08070091F11
:105AD000086000BF0F48006800F000700028F9D08F
